:06000000F3ED56C3700091
:090008000EBFF3ED69ED61FBC9C7
:0A0018007DD3BE7CD60000D3BEC924
:03003800C364207E
:03006600C39A201A
:2000700031F0DF11FCFFAF12060313123C10FBAF2100C0771101C001F01FEDB0CDCD20CD21
:20009000D41DFBCD0A02C30402EDA3EDA3EDA3EDA3EDA3EDA3EDA3EDA3EDA3EDA3EDA3EDA5
:2000B000A3EDA3EDA3EDA3EDA3EDA3EDA3EDA3EDA3EDA3EDA3EDA3EDA3EDA3EDA3EDA3ED30
:2000D000A3EDA3EDA3EDA3EDA3EDA3EDA3EDA3EDA3EDA3EDA3EDA3EDA3EDA3EDA3EDA3ED10
:2000F000A3EDA3EDA3EDA3EDA3EDA3EDA3EDA3EDA3EDA3EDA3EDA3EDA3EDA3EDA3EDA3EDF0
:20011000A3EDA3EDA3EDA3EDA3EDA3EDA3EDA3EDA3EDA3EDA3EDA3EDA3EDA3EDA3EDA3EDCF
:20013000A3EDA3EDA3EDA3EDA3EDA3EDA3EDA3EDA3EDA3EDA3EDA3EDA3EDA3EDA3EDA3EDAF
:20015000A3EDA3EDA3EDA3EDA3EDA3EDA3EDA3EDA3EDA3EDA3EDA3EDA3EDA3EDA3EDA3ED8F
:20017000A3EDA3EDA3EDA3EDA3EDA3EDA3EDA3EDA3EDA3EDA3EDA3EDA3EDA3EDA3EDA3ED6F
:0A019000A3EDA3EDA3EDA3EDA3C9B9
:0A0200003E02CFC93E00CF7618FD84
:1020CD0001080078B1280811F1C021C520EDB0C973
:02020A0018FEDC
:20020C003A01C0B7C83E9FD37F3EBFD37F3A16C0B720043EDFD37F3A17C0B720043EFFD384
:20022C007F2101C03600C93A01C0B7C03A0FC0F690D37F3A10C0F6B0D37F3A16C0B72017FF
:20024C003A13C0E60FF6C0D37F3A14C0E63FD37F3A11C0F6D0D37F3A17C0B720103A15C0D9
:20026C00E60FF6E0D37F3A12C0F6F0D37F2101C03601C9CD0C022109C03601D1C1C5D5ED1A
:20028C004302C0ED4304C0ED4306C02108C03600210CC03600210AC0369F2101C03601C97F
:2002AC002109C03600C9C1E1E5C5E5CD7F02F12109C03600C9FD2101C0FD6E00C93E9FD32D
:2002CC007F3EBFD37F3EDFD37F3EFFD37FC9210BC04E06003A01C0B7284EFD210FC0FD6EBD
:2002EC00002600093E0FBD3E009CE2FB02EE80F202033E0F1807210BC03A0FC086F690D35B
:20030C007FFD2110C0FD6E002600093E0FBD3E009CE22203EE80F229033E0F1807210BC0FB
:20032C003A10C086F6B0D37F3A16C0B728093A18C0F6D0D37F182D3A01C0B72827FD211192
:20034C00C0FD6E002600093E0FBD3E009CE25E03EE80F265033E0F1807210BC03A11C0865F
:20036C00F6D0D37F3A17C0B728083A19C0F6F0D37FC93A01C0B7C8FD2112C0FD6E00260052
:20038C00093E0FBD3E009CE29803EE80F29F033E0F1807210BC03A12C086F6F0D37FC9DD1D
:2003AC00E5DD210000DD39DD7E04320BC03A01C0B7CA6D04210FC05E1600210BC04E06004B
:2003CC006B62093E0FBD3E009CE2DA03EE80F2E1033E0F1807210BC03A0FC086F690D37F95
:2003EC00FD2110C0FD6E002600093E0FBD3E009CE20104EE80F208043E0F1807210BC03AA0
:20040C0010C086F6B0D37F3A16C0B72027FD2111C0FD6E002600093E0FBD3E009CE22E04F3
:20042C00EE80F235043E0F1807210BC03A11C086F6D0D37F3A17C0B72027FD2112C0FD6EAC
:20044C00002600093E0FBD3E009CE25B04EE80F262043E0F1807210BC03A12C086F6F0D3D3
:20046C007FDDE1C9DDE5DD210000DD39F53A1AC0B7CA24053A0BC0DD77FEDD36FF003A1628
:20048C00C0B728483A01C0B728393A13C0E60FF6C0D37F3A14C0E63FD37F3A11C0E60F4F78
:2004AC00591600E1E5193E0FBD3E009CE2BD04EE80F2C4043E0F180579210BC086F6D0D345
:2004CC007F18043EDFD37F2116C036003A17C0B728413A01C0B728323A15C0E60FF6E0D3EF
:2004EC007F3A12C0E60F4F591600E1E5193E0FBD3E009CE20405EE80F20B053E0F180579B1
:20050C00210BC086F6F0D37F18043EFFD37F2117C03600211AC03600DDF9DDE1C9CD70047D
:20052C002122C03600D1C1C5D5ED431BC0ED431DC0ED431FC02121C036002123C036002190
:20054C000400397E0F30040E0118020E002116C071210400397EE60228040E0118020E00CB
:20056C002117C071211AC03601C92122C03600C9FD211AC0FD6E00C9210400397EF53321B8
:20058C000300394E2346C5CD2905F1332122C03601C93A01C0B7C83A08C0B7C232062A041A
:2005AC00C046233A0CC0B728093D320CC020032A0DC078FE803874320AC0CB672038CB7759
:2005CC00CA5E06CB6F28233215C03A17C0B7C2AD053A15C0E603FE0320773A1AC0B7287125
:2005EC003217C03EFFD37FC3AD053213C03A16C0B7285EC3AD05CB772010CB6F28063210FF
:20060C00C0C36406320FC0C36406CB6F280C3212C03A17C0B72840C3AD053211C03A16C089
:20062C00B72834C3AD053D3208C0C9FE4038063A0AC0C37C06FE3828073809E6073208C0D4
:20064C002204C0C9FE083042FE002831FE012827C978D37FC3AD05784FE60F473A0BC08032
:20066C00FE0F38023E0F4779E6F0B0D37FC3AD05CB772029C35D062206C0C3AD053A09C0BC
:20068C00B7CA0C022A06C0C3AD05D604320CC04E234623220DC02A02C009C3AD0578321491
:2006AC00C03A16C0B728AAC3AD05C93A1AC0B7C83A21C0B7C2F2062A1DC046233A23C0B734
:2006CC0028093D3223C020032A24C078FE40DAF706CB67280CCB6F20053218C01803321998
:2006EC00C0D37FC3C6063D3221C0C9FE3828073809E6073221C0221DC0C9FE08301FFE0073
:20070C00280BFE012801C9221FC0C3C6063A22C0B7CA70042A1FC0221DC0C3C606D6043265
:20072C0023C04E2346232224C02A1BC009C3C606C93E00D3BF3E40D3BF0100403E00D3BE94
:20074C000B78B1C24807C9214000E521AE16E5CD0000F1F1019616C5CD0000210000E3215C
:20076C00300BE5CD0000F1F101A00AC5CD0000F1C9210001E5215816E5CD0000F1F1014834
:20078C0016C5CD0000F1C9210200397EC6E04FC5210600397EF533210600397EF533CD007E
:2007AC0000F1C13AB00A81F533CD000033C9DDE5DD210000DD39DD4E060600DD7E04805FCA
:2007CC00DD7E05CE00571AB72826C6E05F510CDD7106C5D5DD7E07F533D533CD0000F1D1F8
:2007EC00C13AB00A83C5F533CD000033C10418CBDDE1C9DDE5DD210000DD3921F6FF39F97B
:20080C0021010039DD75FEDD74FFDD7E06DD77FDDD36F600210A00E5DD6E04DD6605E5CDBD
:20082C00931DF1F14D44DD71FBDD70FCC5210A00E5DD6E04DD6605E5CDBA20F1F1C15DDD22
:20084C007EF6DD86FE6F3E00DD8EFF6773DD7104DD70057BC6104FDD7EFCDDB6FB200C7BF6
:20086C00B72008DD7EF6B728020E00DD46FDDD35FDDD7EFDDD7706C5DD7E07F533C533CD58
:20088C000000F1C13AB00A81F533CD000033DD34F6DD7EF6D604DA2008DDF9DDE1C9DDE5AA
:2008AC00DD210000DD3921FAFF39F921000039DD75FEDD74FFDD4E06060078DD86FE6F3E15
:2008CC0000DD8EFF67E5C5110A00D5DD5E04DD5605D5CDBA20F1F1EBC1E173C5D5210A0007
:2008EC00E5DD6E04DD6605E5CD931DF1F1D1C1DD7504DD74057BC6105F510DDD7106C5D5F2
:20090C00DD7E07F533D533CD0000F1D1C13AB00A8357C5D533CD000033C10478D604389A65
:05092C00DDF9DDE1C969
:200931002AF1C022F3C0CD000022F1C0C9CD0000E5CDAA09F1C9CD0000E5CDAA09F1C9CDE8
:200951000000E5CDAA09F1C9CD0000E5CDAA09F1C9CD0000E5CDAA09F1C9CD0000E5CDAA66
:2009710009F1C9CD0000E5CDE809F1C9CD0000E5CDE809F1C9CD0000E5CDE809F1C9CD0058
:2009910000E5CDE809F1C9CD0000E5CDE809F1C9CD0000E5CDE809F1C93AF1C0FD2102008A
:2009B100FD39FDA6004F3AF2C0FD210200FD39FDA601B1281C3AF3C0FD210200FD39FDA63D
:2009D100004F3AF4C0FD210200FD39FDA601B128032E00C92E01C921F1C04E210200397E0A
:0309F100A16FC92A
:0420C5000000000017
:2009F400C9C90602C5AFF533C533CD380AF1C1C53E16F533C533CD380AF1C1040478D62084
:200A140038E20602C5C5333E02F533CD380AF1C1C5C5333E1EF533CD380AF1C1040478D662
:200A34001638E1C9DDE5DD210000DD39DD6605DD6E04E5CD0000F121A61646C533CD0000B2
:200A540033DD4E040CC5DD4605C5CD0000F1C121A6164604C5C533CD000033C1DD46050412
:200A7400C5C533DD7E04F533CD0000F1C121A616561414C5D533CD000033CD0000F13AA6D9
:200A940016C603F533CD000033DDE1C90002080A2022282A3F030C0F30333C3F00000100D0
:200AB400020003000400050006000700080009000A000B000C000D000E000F00100011008A
:200AD400120013001400150016001700180019001A001B001C001D001E001F00200021006A
:200AF400220023002400250026002700280029002A002B002C002D002E002F00300031004A
:200B1400320033003400350036003700380039003A003B003C003D003E003F00400000AAC0
:200B34001A181C1C1C0000000000AA1F00363624000000AAD6367F7F00000000AA543E08CA
:200B5400680B0800000000EA2152240812254200000000EA182434384D463D00000000AAF8
:200B74000F0030301020000000AA38300C18180C00000000AA3806180C0C1800000000AA8E
:200B940083002214081422000000AA6C08003E0000000000AAF100181830000000AAEF005A
:200BB4003E000000AAF9001818000000EA0102040810204000000000AA38631C26321C00D2
:200BD400000000AABC0C1C3F00000000EA3E63071E3C707F00000000EA3F060C1E03633E5C
:200BF40000000000EA0E1E36667F060600000000EA7E607E0303633E00000000EA1E30601F
:200C14007E63633E00000000AA0E187F63060C00000000EA3C62723C4F433E00000000EA8A
:200C34003E63633F03063C00000000AA930018181818000000AA6C1800003000000000EA33
:200C5400060C1830180C0600000000AAD7003E3E000000EA30180C060C183000000000EA7D
:200C74003E7F63061C001C00000000EA1E33676760331E00000000AA36631C367F00000034
:200C940000AA6C637E7E7E00000000AA38601E33331E00000000AA38637C66667C00000060
:200CB40000AA6C607F7E7F00000000AA6E607F7E00000000EA1F30606763331F0000000004
:200CD400AAEE637F00000000AA7C0C3F3F00000000AAF803633E00000000EA63666C787C7D
:200CF4006E6700000000AAFC607F00000000AA8663777F7F6B00000000EA63737B7F6F6783
:200D14006300000000AA7C633E3E00000000AA70637E7E606000000000AA70633E6F663D51
:200D340000000000EA7E6363677C6E6700000000EA3C66603E03633E00000000AA7E0C3F78
:200D540000000000AAFC633E00000000AAE063773E1C0800000000AAC2636B7F7F770000C3
:200D74000000EA63773E1C3E776300000000AA0E0C3333331E00000000EA7F070E1C38706C
:200D94007F00000000AA7C181E1E00000000EA4020100804020100000000AA7C0C3C3C0033
:200DB400000000AA1F0008142A000000AAFE007F0000000002080A2022282A3F030C0F30B4
:200DD400333C3FFD90FD90FD900D901B910190039949903F9B35903FAC35903FBD5D900320
:200DF400CEFD90659007D0559007D30492019007D601900399419033D9419033E7419033FC
:200E1400F502FD90FD90FD90119000730000A8FE00070000A8FE00FC0000AA273F0000406D
:200E34007F0000E0003F3F7F7F7FEA0000C020E0E0A07F20FE5F001EC000000080A8FE001A
:200E5400800000A8FC0001010000AAFC00817E0000FC007EFFA8FE00C0FE008001A8FE00AF
:200E74001F0000A8FE00F00000AA073E0F377F5F7F0000077F070F1F3F3FEBFAFCFDFA3EC8
:200E9400FEE6F320F9C2C201FCFFFFFDC1010100EABF7FFFFFFEFE9EDE00007EFF7F3FEB4B
:200EB4006E1D837FFEF1FBD820E0419E910B1821EF479FFEFC80010F0707EB40C0BFBF7EC7
:200ED400FBFFF620F9F9F901803F7F7FFDFCF0F9EA0109F7FC7F7FFEFE00001FFF00F0F87C
:200EF400AAF07FFFFF3FBF0000FEFF7FEB601F009A6D6F6B5B20FE59217F4080E0FFFF9E54
:200F14009C9CBCEB00F05FBFBEBD7B7B20BDB07A01000FBF7F7F7EFCFCAA0BBF0004FBFFA3
:200F3400FF20F97F3F010B7F00F8FCFF3FEA072FAF6F9FCFB76F20FE4F01E01F9FFFFFCF5F
:200F540087AA3CFFE8F0F9F400007EFFF0FBEB00CCABDFD383979B00000003C7E7EFFFEF8D
:200F7400E7EA000CFBFEFFFFFEF900001EFF00F0FCFEEB0002FF07EF97F7F720FCC7172109
:200F9400FE97000103FFFFEF0F0FEA000CFAFAF3E0DBDF20FECF21DFF838FC00F0FFE7E74C
:200FB400AAF000C0E0F0D020FBC021F780F80080C0E0EA3F7F5C2B62433F7F0000653F7FE3
:200FD4001C1D7FEA78F4FEFD9F9DFBFA20DCFFFAF821FEFA23FCF0F8FEFEFEAAFF3E0000D5
:200FF400FF7FAA3681A69C82C03601061C020021BF0C07001903030301AAD3FFF0F7F32093
:20101400EFF801E6FFF0F87FEBF9EF1FFCF078C2F62083EE1000806021BAEF40F4FEF0E02D
:20103400000080FCF8AA1C2FDFFFFF0F171E2F5F7F3F17017E1F3F0FFA97FFFFEDEDDCDCA2
:20105400D895F9F9E9E8D0C0C021FDD078F0F8E0E0E0EAFFFFFCFBBFBC3F5F20EFFA01E02C
:20107400FFFC7C7F7F3FEBFEF30FFFFCD8E1FD20C30800E0D001FFFCF00000E0FEFEEA7F40
:20109400F7EF2F635FB717205C4F2F970701430F871F1F1F23EBFCEDDDDFDBD7EE812027AD
:2010B400F8E9CFCB21EFDFF3F3E3E3E7EFFFFEEA9DDDDDD5B571F1E170D19DA161C18121E2
:2010D4007F95F0E3C3830303AA0FFEF3F7F7FF1FF8F0F4F0011FF0FCF8F8AA3E2FEFBF176F
:2010F400BE2F3F1701FE1F0FEAB7F5F9FDFB8FCFFF200FA7C5C9C50107FFCF8F878387EA7F
:201114008888C8D8D8B8B87020E0D0D0A0A04001E0F0E0E0C0C080AA07005D7F5C2B1F204F
:20113400E72A1C010F003F3F3F1CAA0700F3E70EFEF83F00F0E421CF08E01F00FCF8F0EA1E
:201154003E5E5E5F2C1300000020FB12703F7F1F0C0000EAE0D81830F0F00000070060D854
:201174001020E0018F0020E0C0AA1F0073291F20DF1E013F003F1EAA1F00ACFEFC3F00A867
:20119400F8017F00F0AA0700070F0F0A07207F17010F000F070707AA0700D8D838F0F00F7A
:2011B40000C0C020C0217FD01F00E0E0C0AA1F002C120F00003F001F0FAA1F00FB7FFE1FC9
:2011D40000FA7E8021BF7C3F00FC80AAF017675F3F3E0000F00F1F3F1F1FEABFBFB8F870D5
:2011F4007060600F40808080C0217FA01F80C0C0C0AA0700C1C1010203203F0101010F0053
:2012140003030301AA0700EEEC8C7CF80700E8E888608021EF700F00F0F0F080AA1F000B33
:20123400070200001F00070301AA1F00DCBFFF20DFC0013F00FFC0A81F00F0E0C07F0080F0
:201254003F00C080EA5E3E2E2E2D2D231F20FC221C01701F3F1E1E1C00A87EC0E0807F0037
:201274008001EA00000102050B0F0F0000E0000103070707EA0000F00CF4FAFBFB20E908EA
:20129400F8F921FDFBE000F0F8FCFCFCAAFC0020D80000FC00C0E0A8FE007F0000AA2E013C
:2012B400000002E100000F0300000001EA0000FE01FFFDFFFB20FCFEFA20FDFEE000FEFE3A
:2012D400FEFCFCAA3A010B0502C100007B030701AA0FFDF2F4F5F520F8F9F9F9010FF3FD3D
:2012F400FBFBFBAAB0FCF4EC8C7C7CB0F8F4E888406001BCF0F88080AA4F010002020000E0
:201314000F0300000101AA32FF3F7FFBF7F720F9F4FA21FDFE70FF7FFCF8F0F8EBD5E3EFA4
:2013340097F7F72A9E20F9170A01E3FFFFEF0F0F1D01AB61FCFBFBF7F7FE20E0FAF4F4F841
:20135400F821FBF0FCFFFFFCF8F8F0F0EBF4EC18F8FF9FDF8720CD10005F01F8F0E00000AB
:201374007F3F7FEA00000408F7D7FFFF000020C300070FEFEB01024121C1E1A16220FE421D
:2013940001000103C3E3C3C081EA21D1D1D5FDFD93FC2087C1C1C1F121DFD170E3C38383B7
:2013B400FFFFAAFFFDFFF901FFF3FAD8E4F8F7F7FEFEFDD0E4F8F5F5FAFAF90158F8E0FC45
:2013D400F1F1F3AA0DFF0041BF7FFE00001EFF003E7FFEEB008040C1B915DBFF20FE7F0167
:2013F40000008080C0F83C3CEA2F5FBF7FFFFE7EBE00001EFF1F3F7F7FEBFCF4FAFA3E7EB6
:20141400E0E020C1F8F83C000001F0F8FCFCC0800000AAD3010203000000C703010000EA92
:20143400F3FFC7D7141EFDFF0000E3FFEFEFFDAA23D145A1E9F9E9207E41C120FEC123E349
:2014540083C3F3F3F3AA7FFCFD7FF8F901FFF0AA382F37EF1F17070000781FCF0F0F0FEAE6
:20147400E7EFE38FFBF38FFC0000E3FFF3878FEB652FBBF7F7AFCF73200F45078BC7217F26
:201494004183C3C78F8FDFFFFFEAF2EEDEDDDDD5E9F520C3D2C1C1D1011CE3FDF1E1F3FB15
:2014B400AAFCFDEDEDFCF9E9E921D3FDFDFDFFF3AAE6FDFCFFFCE6F9F8FBF821BFFD0FF0CD
:2014D400F3F3F3F3AA78FBFDFE7EBF208FFAF8FA21DFFA78FCFEFDFF7FEABDADAFBFBDFDD9
:2014F4007DFB204E3D2F3FFA21BF2DF87EFEFEFCAA83BF7FDCABE2C320433F5C2B6243214C
:20151400FBC3643F7F1C1D7F7FEA40E8F4F89AFABBFB20F098F8BAFA217D50B81BFCE0F077
:20153400F89CAA0F000201020100001F00010301EAEFFFE0DFFF02000020E3D1E00021EFC4
:20155400D70F00FFFFFFE0EAB579F2E2C30100002007A141820203010F00C3830101EBFF32
:20157400FCF0F9479F0000207BFB90217FFAF0F3FFFEF8600000AA13000B8582808020F3B2
:201594000000011F00070301AA1F00CBBFFF1F00C9BDC1013F00FCC0AA1F006C5EFD209F09
:2015B40052E121BF5A3F00F3E1AA0E0170DFBF030020CFA101011F00FFE040FAEDBDBE7F1C
:2015D400FDED5CE4E9B9BA79F9E958E021FD5C1CF0F37371E000AAF0FC5C3C0000F0F85833
:2015F40020000001F0F0E0C00000AA1F007E3B1620DF14011F003F1C08AA1F0007FFFC3FFE
:201614000004F8017F00F8AA0700BFBF5C2B1C202F3F3F2A21EF2B0F007F7F3F1CAA070025
:20163400F3EF0EFCF80F00F2EC089021CF00801F00FCF0F00002080A2022282A3F030C0FBD
:2016540030333C3F040032030F1F3F3361617321F96D6D32C0F0F8FCCC8686CE21F9B6B694
:20167400337F33381C8F53A0507F3F3F1F8FD3E07033FECC1C38F1CA050AFEFCFCF8F1CBB8
:20169400070E0002080A2022282A3F030C0F30333C3F40004100420043000400B2E00001A1
:2016B400040C0808070F0F3E3B737777077F070F0F3F3FB2E0008020201080E0F0FC7CDEC6
:2016D400DEEE7E0FFEE0F0FCFCA25C010A0303031F00353E1C201F3F3F1FA2D080C0C0C009
:2016F400E0E01F007E7C38201FFEFCF8804F9FAD51BFC856DFE6FF3890B0D03891B1D138BC
:2017140092B2D23893B3D33895B5D53F3E8D509FA054BF3890B03891B13892B23893B33827
:2017340095B5398D519FA856BF3890B03891B13893B33894B43895B53F804F9FAD51BFDF1D
:201754003890B0D03891B1D13892B2D23893B3D33895B5D53F388D509FA054BFDF3891B1ED
:20177400D13892B2D23893B3D33894B4D43895B5D53F8D519FA856BF3890B03891B1389304
:20179400B33894B43895B53F80549FAD57BF3890B03891B13892B23893B33895B53F3880A6
:2017B4005E9FAC5ABFDF3891B1D13892B2D23893B3D33894B4D43895B5D53F88569FBFDF85
:2017D4003890B0D03891B1D13893B3D33894B4D43895B5D53F80549FAD57BF3890B03891B0
:2017F400B13892B23893B33895B53F388D519FA856BF3891B13892B23893B33894B4389536
:20181400B53F88569FAC5ABFDF3890B0D03891B1D13893B3D33894B4D43895B5D53F8054FD
:201834009FAD57BFC05EDF3890B0D03891B1D13892B2D23893B3D33895B5D53F3E8D579FAC
:20185400A856BF3890B03891B13892B23893B33895B539805E9FA054BF3890B03891B138B6
:2018740093B33894B43895B53FDF38D038D138D238D338D53F388C5A9FAC5ABFCB61DF38B7
:2018940091B1D13892B2D23893B3D33894B4D43895B5D53F3E8D579FA05EBF3891B13892D6
:2018B400B23893B33894B43895B53888569FAC5ABF3890B03891B13892B23893B33895B5FA
:2018D4003F388C5A9FA856BFDF3891B1D13892B2D23893B3D33894B4D43895B5D53F805EAA
:2018F4009FAC5ABFCB63DF3890B0D03891B1D13893B3D33894B4D43895B5D53F8D579FA072
:201914005EBF3890B03891B13892B23893B33895B53F3888569FAC5ABF3891B13892B23841
:2019340093B33894B43895B53F8D519FA856BFDF3890B0D03891B1D13893B3D33894B4D4BB
:201954003895B5D53F80549FAC5ABFC168DF3890B0D03891B1D13892B2D23893B3D338959E
:20197400B5D53F3E8D519FAD57BF3890B03891B13892B23893B33895B5398E4F9FA856BF2C
:201994003890B03891B13893B33894B43895B53F864D9FA054BFDF3890B0D03891B1D138B3
:2019B40092B2D23893B3D33895B5D53F38804F9FAD57BFC05EDF3891B1D13892B2D238934C
:2019D400B3D33894B4D43895B5D53F80549FAC5ABF3890B03891B13893B33894B43895B5D9
:2019F4003F805E9FA05EBF3890B03891B13892B23893B33895B53F38CD57DF38D138D23827
:201A1400D338D438D53F804F9FAD51BFC856DF3890B0D03891B1D13893B3D33894B4D438EF
:201A340095B5D53F3E8D509FA054BF3890B03891B13893B33894B43895B5398D519FA856A1
:201A5400BF3891B13892B23893B33894B43895B53F804F9FAD51BFDF3890B0D03891B1D161
:201A74003893B3D33894B4D43895B5D53F8D509FA054BFDF3890B0D03891B1D13892B2D228
:201A94003893B3D33895B5D53F388D519FA856BF3891B13892B23893B33894B43895B53F24
:201AB40080549FAD57BF3890B03891B13893B33894B43895B53F805E9FAC5ABFDF3890B092
:201AD400D03891B1D13892B2D23893B3D33895B5D53F3888569FBFDF3891B1D13892B2D2B6
:201AF4003893B3D33894B4D43895B5D53F80549FAD57BF3890B03891B13893B33894B43839
:201B140095B53F8D519FA856BF3890B03891B13892B23893B33895B53F3888569FAC5ABFC7
:201B3400DF3891B1D13892B2D23893B3D33894B4D43895B5D53F80549FAD57BFC05EDF3873
:201B540090B0D03891B1D13893B3D33894B4D43895B5D53F3E8D579FA856BF3890B038911C
:201B7400B13893B33894B43895B539805E9FA054BF3891B13892B23893B33894B43895B541
:201B94003FDF38D038D138D338D438D53F8C5A9FAC5ABFCB61DF3890B0D03891B1D13892ED
:201BB400B2D23893B3D33895B5D53F3E8D579FA05EBF3890B03891B13892B23893B338956F
:201BD400B53988569FAC5ABF3890B03891B13893B33894B43895B53F8C5A9FA856BFDF38B7
:201BF40090B0D03891B1D13892B2D23893B3D33895B5D53F38805E9FAC5ABFCB63DF3891F1
:201C1400B1D13892B2D23893B3D33894B4D43895B5D53F88569FA05EBF3890B03891B13841
:201C340093B33894B43895B53F8D519FAC5ABF3890B03891B13892B23893B33895B53F38E2
:201C5400804F9FA856BFDF3891B1D13892B2D23893B3D33894B4D43895B5D53F8D509FA076
:201C740054BFC168DF3890B0D03891B1D13893B3D33894B4D43895B5D53F3E8D519FA856AE
:201C9400BF3890B03891B13893B33894B43895B53980549FAD57BF3891B13892B23893B31C
:201CB4003894B43895B53F8C5A9FAC5ABFDF3890B0D03891B1D13893B3D33894B4D43895A1
:201CD400B5D53F80549FA05EBFC05EDF3890B0D03891B1D13892B2D23893B3D33895B5D571
:201CF4003F38805E9F389138923893389438953F88569FAC5ABFC856DF3890B0D03891B1A5
:201D1400D13893B3D33894B4D43895B5D53F3F3D00C351D03AC5683AC5493AC14C3ACC5FE8
:201D34003AC0683AC3553ACF47D33AC04AD53AC068D73AC978DD3AC040DF3A00C54DD03B9E
:201D5400CE483BC744D53ACA463BC54DDA3A090400DB3BCA46DD3AC040DF3800C54DD03B15
:201D7400C04A3BC7493BCE48D53BC54D3BC04A3BC749DA3BCE483BC0493BC040DF3B00F142
:201D9400E1D1D5E5F5180A210300395E2B6E2600547BE680B220100610ED6A179330018350
:201DB4003FED6A10F65FC906097D6C2600CB1DED6AED523001193F1710F5CB10505FEBC9CC
:201DD400210000E5CDF61EF10E0021281E06000946F378D3BF79CBFFD3BFFB0C79D60B38E2
:201DF400E9CD361FCD911FCDA31FCD3620DB7E473E809038F8DB7ED68038FADB7E4FDB7E95
:201E14009130F879D6E738062129C03680C92129C03640C90420FFFFFFFFFF000000FFFD94
:201E34002129C0FD6E00C94D5C160021F5C0197EB14F71F379D3BF7BCBFFD3BFFBC97D5C41
:201E54002F47160021F5C0197EA04F71F379D3BF7BCBFFD3BFFBC9F37DD3BF3E88D3BFFB27
:201E7400C9F37DD3BF3E89D3BFFBC9F37DD3BF3E87D3BFFBC9CB4528040EFB18020EFFF3EA
:201E940079D3BF3E86D3BFFBC94DCB41280FC5210201CD3B1EC121F7C03610180DC521027E
:201EB40001CD521EC121F7C03608CB492814210101CD3B1E21F8C03610FD21F7C0FDCB00A4
:201ED40026C9210101CD521E21F8C03608C9210200394E06002100C009CF210300397ED3A8
:201EF400BEC9210200394E06002110C009CF210300397ED3BEC91100C00EBFF3ED59ED5184
:201F1400FB06100EBEEDA320FCC91110C00EBFF3ED59ED51FB06100EBEEDA320FCC97DD394
:201F3400BEC921EEC03600C93AEEC0D640304BFD210300FD39FD7E00D6D1283E3E2E21EE65
:201F5400C0864F3EC0CE0047FD5E001D7B023AEEC0874F216EC0060009FD210200FD39FD61
:201F74007E007723FD210400FD39FD7E0077FD21EEC0FD4E00FD340069C92EFFC93AEEC093
:201F9400D640D0012EC02AEEC026000936D0C921007FCF012EC01E400AD3BE0353157A5FE7
:201FB400B720F521807FCF016EC01E800AD3BE0353157A5FB720F5C92126C036002126C0CD
:201FD400CB4628F9C92A2AC0C9FD212CC0FD7E002F4FFD7E012F47FD212AC0FD7E00A16F8D
:201FF400FD7E01A067C93A2AC0FD212CC0FDA6006F3A2BC0FD212CC0FDA60167C9FD212AF6
:20201400C0FD7E002F4FFD7E012F4779FD212CC0FDA6006F78FDA60167C9FD2128C0FD6EAF
:2020340000C92128C03600C9210200397E32EFC0210300397E32F0C0C9210200394EF37964
:20205400D3BF3E8AD3BFFBC9DB7E6FC9DB7F6FC9F5E5DBBF3227C00730192126C036012A54
:202074002AC0222CC0DBDC2F212AC077DBDD2F2377180EC5D5FDE52AEFC0CDAD20FDE1D1A7
:19209400C1E1F1FBED4DF5C5D5E5FDE52128C03601FDE1E1D1C1F1ED4561
:0420C90004200808DF
:1820AD00E9210300395E2B6ECDA21DEBC9F1E1D1D5E5F5CDA51DEBC909
:00000001FF
